:10000000EEC085C207C106C105C104C1B5CB02C19E
:1000100001C100C1FFC0FEC0FDC0FCC0FBC0FAC0F2
:10002000F9C0F8C0F7C00403090470037700770033
:1000300077002E006D0069006B0072006F00630096
:100040006F006E00740072006F006C006C00650041
:1000500072002E006E00650074002F0061007200B7
:100060007400690063006C00650073002F00550088
:10007000530042005F00490052005F0052006500DB
:100080006D006F00740065005F0052006500630042
:10009000650069007600650072002E03550053006C
:1000A00042002000490052002000520065006D000F
:1000B0006F00740065002000520065006300650059
:1000C000690076006500720012011001000000084E
:1000D000C016DF050801010200010902220001012A
:1000E00000800A0904000001030000000921010149
:1000F000000122590007058103080064010F15075C
:100100000B070B070B0F14000F140001001C050C4C
:100110001122050C050C000D1A222A01010002050E
:100120000C1122050C050C00000000000101000369
:10013000050C1021050C050C0010152525010100EA
:10014000120208080E02080105000E142028010101
:1001500000070B100B10000000000107070D0D0039
:10016000000109050C050900000000050D0D15151D
:100170000000031703060306000000000009091130
:100180001600000305010B010000FFA10115002668
:10019000FF0075088501950609008200018502951A
:1001A000010900B20201850395060900B20201852A
:1001B0000495010900B20201850595060900B20205
:1001C00001850695020900B2020185079504090020
:1001D000B20201850895010900B20201C000112494
:1001E0001FBECFE5D4E0DEBFCDBF10E0A0E6B0E09B
:1001F000E4E3F8E102C005900D92AA37B107D9F700
:1002000011E0AAE7B0E001C01D92A431B107E1F707
:1002100049DA0ECBF5CE85B7826085BF8BB7806497
:100220008BBF8BE48093EA008AE58093E900089510
:100230001F93DC01162F8091E90084FF07C0809195
:10024000EA0098E889278093EA0003C08AE5809352
:10025000E900912FEBEEF0E08D918193915019160A
:10026000DCF38BEE90E0612F4ED11C5F1093E90020
:100270001F9108951F93CF93DF936091FA0063500D
:1002800067FDC2C08091F700CCE0D0E0C81BD10967
:10029000C250DF4F8091F6008D3209F0A3C0683064
:1002A00009F0B0C083EC8093DE008AE580936000A3
:1002B00010927A008881807639F0CE01C6D8282F36
:1002C0008F3F09F47EC084C09A811092E700898133
:1002D000882321F41092E80022E06CC0853019F4E4
:1002E0009093FB0066C0863009F04FC08B8181304F
:1002F00041F488EC90E09093F9008093F80022E1BB
:1003000040C0823041F48AED90E09093F9008093F0
:10031000F80022E236C08330F9F48A81882341F460
:1003200086E290E09093F9008093F80024E029C0E1
:10033000813041F48AE290E09093F9008093F800D4
:1003400020E71FC08230E1F48AE990E09093F90041
:100350008093F8002EE215C0813241F48CEE90E0DB
:100360009093F9008093F80029E00BC0823241F4A9
:1003700084E891E09093F9008093F80029E501C0AA
:1003800020E080E480937A0023C0883021F421E0CB
:100390008DEF90E011C0893019F49093FD0009C0F1
:1003A0008A3011F421E006C08B3019F48BE480937D
:1003B000EA0020E087EE90E09093F9008093F80047
:1003C00007C0888187FD2E8180E880937A0006C06F
:1003D0008F81882319F48E81821708F0822F8093F1
:1003E000610010C080917A0087FF0CC0CE019ED8BA
:1003F0008F3F21F48EE18093600004C0882311F0C8
:10040000109261001092FA008091600084FF58C041
:10041000809161008F3F09F453C0182F893008F094
:1004200018E0811B809361008091DE0098E88927A5
:100430008093DE00112391F180917A0087FF08C03C
:100440008FED90E0612FD3D8182F893098F526C012
:100450002091F8003091F90086FF0DC0AFEDB0E0BB
:1004600080E090E0F901E80FF91FE491ED93019627
:100470001817C1F708C0912FD901EFEDF0E08D9169
:1004800081939150E1F71150812F90E01F5F019609
:10049000820F931F9093F9008093F8008FED90E006
:1004A000612F31D0612F6C5F6C3041F08FEF809302
:1004B000610004C08FEF809361006EE16093600083
:1004C00094E186B3837031F49150D9F71092FB0018
:1004D0001092F500DF91CF911F910895A82FB92FA9
:1004E00080E090E041E050EA609530E009C02D9155
:1004F00082279795879510F084279527305EC8F35B
:100500006F5FA8F30895EADF8D939D930895CF93CD
:10051000CFB7CF93C395B09BE9F7B09B09C0B09B11
:1005200007C0B09B05C0B09B03C0B09B01C0A3C077
:10053000DF93C091F700DD27C250DF4FB09B02C0B0
:10054000DF91EBCF2F930F931F9306B32FEF00FB99
:1005500020F94F933F9316B34FEF012700FB21F98A
:100560003BE031C04E7F012F16B3216028C0102F11
:100570004D7F2260000006B329C04B7F2460012F0D
:10058000000016B32BC016B3477F28602AC04F7EE9
:1005900006B320612CC04F7D16B320622FC04F7B65
:1005A00006B3206432C0422706B349934FEF0000E0
:1005B000102710FB20F916B31370C9F1297F91F2AF
:1005C000012700FB21F906B3237F89F2315058F14E
:1005D000102710FB22F916B3277E79F2012700FBC2
:1005E00023F92F7C81F206B3102710FB24F92F7911
:1005F00071F200C016B3012700FB25F92F7359F2E1
:1006000000C006B3102710FB26F9223040F200C0CC
:1006100016B3012700FB27F9243028F64F7720680E
:1006200016B30000F9CF10E41ABF002719C03B50E1
:100630003195C31BD04010E41ABF0881033CF9F088
:100640000B34E9F02091F5001981110F1213EDCF51
:100650004A81441F093641F10D3211F0013E29F75C
:100660000093FC003F914F911F910F912F91DF91CB
:10067000CAB7C6FD4FCFCF91CFBFCF91189520916C
:10068000FC00222379F31091FA00112369F534302C
:100690006AF13093FA002093F6001091F7003BE0E6
:1006A000311B3093F70022C00091FA000130E4F4CE
:1006B0000AE54F7049F43091600034FD19C0009391
:1006C0006000CEEDD0E018C03091E90034FD10C0DC
:1006D0000093E900CAEED0E00FC02795A8F451506E
:1006E000A9F4220F0000F9CF4AE503C042ED01C092
:1006F000432FC4E1D0E032E017B31360C09A17BBB8
:1007000008B320E413E05F93012756E008BB279568
:1007100020F4515021F4220FF9CF012756E00000B8
:100720003B5A08BBD0F2279528F4515029F4220FE8
:100730000000F9CF012756E0279508BB20F451505F
:1007400021F4220FF9CF012756E02991332308BB6A
:1007500021F60C7F1091FB00110FC651D04008BB51
:1007600011F01093F50010E41ABF016017B31C7F5D
:10077000402F4C7F5F9100C000C008BB17BB48BB37
:1007800071CFC598BD980895FC018091A900882378
:1007900009F4A8C08091AA00873009F479C0883094
:1007A00030F4823091F1833009F07BC007C0813191
:1007B00009F45AC0873109F074C056C02091AD00C9
:1007C0003091AE008091AD009091AE00232F332781
:1007D0008095909590702817390709F080C0809116
:1007E000AD009091AE0090709093AE008093AD00FC
:1007F0002091AD003091AE008091AF009091B0009B
:10080000982F8827822B932B2AC02091AD003091FE
:10081000AE008091AD009091AE00232F33278095DC
:100820009095907028173907A9F08091AB009091AE
:10083000AC008E5E974809F052C08BE08093AA000E
:100840008091AD009091AE00892F99279093AC00D4
:100850008093AB008091AD009091AE00907090932A
:10086000AE008093AD001DC08091AD009091AE00B0
:100870002091AD003091AE0096958795822780FF3C
:100880002EC08091AD009091AE0096958795E7CFF0
:100890008091AB009091AC008F7D9093AC008093E1
:1008A000AB008091AA0080838091AB009091AC0056
:1008B000928381838091AD009091AE009483838375
:1008C0008091B10085831092AE001092AD0010921D
:1008D000AC001092AB001092B10081E001C080E04A
:1008E0001092A9000895E82F609186007091900001
:1008F000671738F180919100681718F5809196007C
:100900002E2F30E04091B2005091B300882381F047
:10091000862F90E0871B910902C0220F331F8A9512
:10092000E2F7422B532B5093B3004093B20033C0F5
:10093000440F551F242B352B3093B3002093B20066
:100940002AC070919200671730F180919300681768
:1009500010F5809196002E2F30E04091B400509118
:10096000B500882381F0862F90E0871B910902C093
:10097000220F331F8A95E2F7422B532B5093B50079
:100980004093B40008C0440F551F242B352B3093DF
:10099000B5002093B400809187008C31D1F46D3084
:1009A00098F16A3188F58E2F90E0262F30E02D5097
:1009B000304002C0880F991F2A95E2F72091B600B7
:1009C0003091B700282B392B3093B7002093B60015
:1009D0001BC08330C9F46131B8F06531A8F48E2FA3
:1009E00090E0262F30E02151304002C0880F991F3F
:1009F0002A95E2F72091BA003091BB00282B392BC1
:100A00003093BB002093BA006F5F60938600089517
:100A1000982F8091870020918600882311F0225022
:100A200001C021504091A1002417C8F08091A2007C
:100A30002817A8F4892F90E030E0241B310902C068
:100A4000880F991F2A95E2F72091B6003091B700E0
:100A5000282B392B3093B7002093B600089540918E
:100A6000A3002417C0F08091A4002817A0F4892FB8
:100A700090E030E0241B310902C0880F991F2A95AD
:100A8000E2F72091B8003091B900282B392B309330
:100A9000B9002093B80008951F9396B38091A900E0
:100AA000882309F0B8C49072809185008823C1F52D
:100AB00080918200992321F48F5F80938200ABC4E0
:100AC0008823F9F091E09093850090938300109231
:100AD00084001092B5001092B4001092B3001092EE
:100AE000B2001092B9001092B8001092B7001092A4
:100AF000B6008FEF809386009093810010927D0066
:100B00008AC480917F00909180002FEF8F3F9207E1
:100B100009F481C401969093800080937F007BC488
:100B200080918300882309F4DBC0992349F08091E8
:100B300081008F5F809381008A3E08F44BC3DAC145
:100B40001092980020918200822F8F518B3048F4B0
:100B500080918100863028F08B3018F46CEF70E0C3
:100B600085C0822F8E55843570F4809181008E323D
:100B700028F08A3540F46DE071E078C0873118F0D4
:100B80006EE171E073C0822F8C53803148F4809104
:100B900081008C3328F08C3418F46FE271E066C069
:100BA000822F8B50863018F08B508B3058F59091F7
:100BB0008100892F8B50863018F08B508B3010F5C8
:100BC0002D51253058F49D3048F0903138F488E9A3
:100BD00090E060E471E041E150E0F2D561E571E060
:100BE0009091810090937C008091820081518031AE
:100BF00018F091519031A0F410927B0080E4809322
:100C00007D0034C0822F83528B3070F4809181003C
:100C10008B3050F0813140F462E671E010927C003C
:100C200081E080937B0022C0822F83508A3070F451
:100C300090918100892F8650853018F08650893038
:100C400028F463E771E090937C00EACF2D512530C2
:100C500048F4809181008D3028F0803118F460E4F0
:100C600071E004C01092850060E070E08091850022
:100C7000882329F087E890E041E150E0A1D5109267
:100C8000860080919700482F50E080FF21C080911E
:100C900087008731E9F08930D9F020918100809177
:100CA0008900821760F430E090E0880F991F821766
:100CB00093072CF056954795842F809507C0809117
:100CC0007B00882329F456954795842F81700BDE8D
:100CD00081E08093820010928100109283007AC29A
:100CE00080918400882309F468C2992309F409C11A
:100CF00050918600709194005717B9F48091950037
:100D0000813099F48091970080FD0CC09091820011
:100D100080918C00981708F4EDC080918D008917A0
:100D200008F4E8C01092950055C2409181004F5FD1
:100D30004093810060918700613029F54C3008F4C0
:100D400073C05B3008F470C05F5F509394004091B3
:100D50008600242F30E02B503040322F2227809104
:100D6000B2009091B300822B932B9093B3008093A9
:100D7000B20080919200840F8F5F809393008AE08D
:100D800080938100BEC0673109F04EC0809195000C
:100D9000882309F049C0242F30E080918B0090E037
:100DA000880F991F2817390734F05F3020F081E150
:100DB0008093940053C0513108F40CC281E18093B8
:100DC0008700109290008BE08093910080939200B6
:100DD00086E1809393004091B2005091B300440F9C
:100DE000551F440F551F2091B4003091B500C90123
:100DF00016E0969587951A95E1F7842B952B90939D
:100E0000B3008093B2002F733070B4E0220F331F11
:100E1000BA95E1F780917B0090E0282B392B309335
:100E2000B5002093B400D6C18091970080FF1AC00E
:100E3000242F30E080918B0090E0880F991F2817B5
:100E4000390784F0252F30E0872F90E0029728178C
:100E5000390744F080919500882321F481E0809344
:100E600095004FC04A3E08F4B5C1252F30E0872FCA
:100E700090E001972817390741F480919500882365
:100E800021F45F5F50938600A5C16C3199F5503213
:100E900089F581E08093950082E0809387008091BE
:100EA0008600809394008091B600382F3295330FDE
:100EB000307E20E08091B2009091B300822B932B82
:100EC0009093B3008093B2002091B400922F990FB9
:100ED000990F80E02091B6003091B700F3E036958D
:100EE0002795FA95E1F7822B932B9093B500809389
:100EF000B40070C11092850010928200109281009F
:100F000069C180919700282F30E080FFD9C01091EF
:100F1000820080918900811708F046C08091870087
:100F2000893081F480918600843061F41C3050F067
:100F300080919400843219F481E0D5DC23C080E0F4
:100F4000D2DC1DC036952795822F80958170CBDC31
:100F5000809187008930C1F4809186008430A1F4AB
:100F60001C3090F081E0BFDC2091810030E0809166
:100F70008B0090E0880F991F821793071CF4109242
:100F80007B0065C081E00DC08091970090E0969550
:100F900087958170A8DC8091970090E09695879561
:100FA000817080937B0053C0809188001817B8F13E
:100FB00020917C0080918B00821780F430E090E0DB
:100FC000880F991F821793074CF020E080917B00D7
:100FD000882309F421E020937B0002C020917B004C
:100FE000809187008930C1F4809186008130A1F41E
:100FF000213091F494E29093940085E080939000E6
:1010000084E18093910085E1809392009093930016
:101010001092B3001092B200822F65DC18C080914C
:101020009800823181F4123070F0193060F49091A0
:101030008100892F8850873018F09150953018F42E
:101040001092870004C01092850010928100809158
:101050009800823181F5123070F1193060F590916D
:101060008100892F8850873010F481E004C09150AE
:10107000953010F480E0CCDC809187008823D9F48F
:10108000A7E8B0E0E8E9F0E081E101900D9281503D
:10109000E1F7109298008091B6009091B70090937C
:1010A000B3008093B2008091B8009091B900909302
:1010B000B5008093B4008091810080937C0049C08A
:1010C00080918700833059F580918600803109F046
:1010D00043C0809182008550883008F068C09091AC
:1010E00081009C3360F09C3450F410928400109284
:1010F000BB001092BA0081E1809386005CC08AE058
:101100008093870080E18093920080E28093930037
:10111000809394009051923108F046C031C08C31D8
:10112000D9F4909186009830B9F4809181008E3284
:1011300098F08A3588F48BE18093870010929000B4
:10114000909391009093920080E18093930080931C
:101150009400109284002FC09091820080918800AA
:10116000981780F080918900891760F020918100A4
:1011700080918A00281730F080918B00821710F040
:1011800081E013C080918C00981788F080918D00C9
:10119000891768F09091810080918E00981738F03F
:1011A00080918F00891718F080E09DDBD2CF1092DC
:1011B00085001092810081E005C0992331F480916F
:1011C00082008F5F8093820005C081E0809384005D
:1011D0008093810080918500882309F41CC190913F
:1011E000860080919400981709F015C180919500B0
:1011F000882309F010C12091620030916300809132
:10120000B4009091B5002817390769F480917F00E8
:1012100090918000805B944030F480917E008F5FDD
:1012200080937E0002C010927E00909187009130E2
:1012300031F480917E008150823060F406C09A3093
:1012400049F480917E0080FF05C0109280001092CA
:101250007F009DC081E08093A900923039F5809194
:101260008600882319F580917F0090918000885036
:101270009740D0F480916400909165009093B30002
:101280008093B20080916200909163009093B500CA
:101290008093B4008091B10081608093B10010927E
:1012A000800010927F0002C01092A90090918700E8
:1012B000993041F480919400843221F485E1809347
:1012C000AA0002C09093AA0080918700823171F534
:1012D0008091B4009091B5009C0114E0369527955B
:1012E0001A95E1F78F709070892B09F02068309380
:1012F000B5002093B4004091B2005091B3009A0120
:10130000220F331F220F331F20703F708091B400D3
:101310009091B500822B932B9093B5008093B400ED
:101320004F7350705093B3004093B2002091B200BD
:101330003091B3003093AC002093AB0080918700D4
:10134000823021F4309365002093640080918700FF
:10135000873069F420917D0030E08091B400909155
:10136000B500822B932B9093B5008093B4008091AD
:10137000B4009091B5009093AE008093AD00809141
:10138000BA009091BB009093B0008093AF00809121
:10139000A9008823B1F1209162003091630080910F
:1013A000B4009091B50028173907B9F42091640072
:1013B000309165008091B2009091B30028173907F1
:1013C00061F480917F00909180008A5C984028F4BD
:1013D0008091B10081608093B1008091B2009091C2
:1013E000B30090936500809364008091B400909165
:1013F000B500909363008093620010928000109279
:101400007F00109285001092B5001092B4001092E7
:101410008200109281008091A9001F91089589E0B7
:101420008EBD8FE193E09BBD8ABD80E189BF0895A9
:101430008FEF88BB17BA82BB11BA93E094BB8EEFD3
:1014400085BB88B3892788BB0895FC01808180769D
:10145000803209F069C081818130E9F52EEC30E0FD
:101460003093F9002093F8008281823059F4809300
:10147000CE00C901019660E070E041E050E0B2D1D9
:1014800082E00895833061F482818093CE00C901A7
:10149000019661E070E046E050E0A4D187E0089555
:1014A000873009F041C082818093CE00D901119626
:1014B000E6E6F0E08BE001900D928150E1F78BE0E1
:1014C00090E09093BE008093BD001092BF0087E033
:1014D0008093C00027C0893039F52281243049F437
:1014E00081E090E09093BE008093BD001092BF0019
:1014F00017C0253051F486E090E09093BE008093B1
:10150000BD0081E08093BF000BC0283069F487E004
:101510008093BF0081E090E09093BE008093BD0077
:101520002093C1008FEF089580E00895FF920F93FC
:101530001F93CF93DF93EC01F62E2091BD003091E5
:10154000BE002115310509F44AC0862F90E0281706
:10155000390708F4F22E8091C100843061F4609163
:10156000BF00CE01019670E04F2D50E04BD1898134
:101570008093790022C0853099F48E010F5F1F4F50
:101580006091BF00C80170E04F2D50E03BD1A8EC46
:10159000B0E0F80186E001900D928150E1F70DC0B6
:1015A000883059F46091BF00CE01019670E04F2D54
:1015B00050E028D18981809378008091BF008F0D01
:1015C0008093BF008091BD009091BE008F1991095A
:1015D0009093BE008093BD0020E0892B09F421E0A8
:1015E000822FDF91CF911F910F91FF9008951F934C
:1015F000AC01162F2091BD003091BE00862F90E0E7
:101600002817390708F4122F8091C000873051F451
:101610002091BF0030E022533F4FCA01B901412F52
:1016200050E0D7D08091BF00810F8093BF008091A0
:10163000BD009091BE00811B91099093BE008093E4
:10164000BD00812F1F9108958091C70080FD03C0C8
:101650001092BC0005C08091BC008F5F8093BC00DD
:101660009091BC002091780080E0921708F081E012
:10167000992311F08823A9F0882311F02093BC004E
:10168000809171008093CE00AFECB0E0E2ECF0E02E
:1016900086E001900D928150E1F78EEC90E067E0DA
:1016A000C7D508950F931F93DF93CF930F92CDB7B4
:1016B000DEB788E10FB6F89481BD11BC0FBE2EE0F5
:1016C00088E190E00FB6F894A89581BD0FBE21BDCA
:1016D000AFDE86E0E2ECF0E0DF01982F1D929A95F4
:1016E000E9F7E8ECF0E0DF011D928A95E9F749D8C7
:1016F00089E08EBD8FE193E09BBD8ABD80E189BF0B
:10170000A99AA898B89A20E048E95AE304C0A89595
:10171000CA010197F1F72150D1F71982B8987BD50A
:101720007894CE01019667E070E041E050E05AD035
:1017300089818F3F41F488E790E067E070E041E005
:1017400050E060D002C08093780088EC90E061E0C7
:1017500070E046E050E046D00CED15E0A89582EC34
:1017600090E012D8882331F06FDFA998C801019763
:10177000F1F7A99A7FD5F2CF78941F920F920FB606
:101780000F9211242F933F934F935F936F937F9307
:101790008F939F93AF93BF93EF93FF937DD9FF9167
:1017A000EF91BF91AF919F918F917F916F915F91D9
:1017B0004F913F912F910F900FBE0F901F90189552
:1017C000FB01DC0102C005900D9241505040D8F75A
:1017D0000895FB01DC0102C001900D924150504080
:1017E000D8F70895DC01CB01FC01E199FECF06C0DA
:1017F000FFBBEEBBE09A31960DB20D9241505040C6
:10180000B8F70895DC01CB0102C02D9105D04150FD
:101810005040D8F70895262FE199FECF9FBB8EBB8D
:101820002DBB0FB6F894E29AE19A0FBE0196089587
:04183000F894FFCF5A
:101834005AFFFFFFFFFF32302E30392E3230313164
:0A1844000001020304050708050176
:00000001FF
